:100000000C943D000C9447000C9447000C9447005E
:100010000C9447000C9447000C9447000C94470044
:100020000C9447000C9447000C9447000C94470034
:100030000C9447000C9447000C9447000C94470024
:100040000C9447000C9447000C9447000C94470014
:100050000C9447000C9447000C9447000C94470004
:100060000C9447000C94470069006B006D006F0012
:100070007100730075007700790011241FBECFEF67
:10008000D8E0DEBFCDBF0E947E000C94A8000C9487
:100090000000A62F589A20E030E0E0E0F0E050E0C9
:1000A000BAE0241735074CF46B2F0E949600E92F15
:1000B000F0E09BB12F5F3F4FF4CF8A17E0F4319708
:1000C000E930F10520F4EC5CFF4F0C94A20088E8C5
:1000D00013C08EEB11C089E10FC08CE10DC08EE220
:1000E0000BC08CE409C088E407C08CEB05C088E035
:1000F00003C08CE001C08FED85B908958FEF84B9FE
:1001000085B98AB9C0E041E06AE08C2F0E944900BD
:10011000CF5FCA3009F4C0E02FEF89E698E12150A3
:1001200080409040E1F700C00000EDCF991B79E0DE
:1001300004C0991F961708F0961B881F7A95C9F777
:1001400080950895EE0FFF1F0590F491E02D09941E
:04015000F894FFCF51
:00000001FF
