:100000000C943E000C9450000C9450000C94500042
:100010000C9450000C9450000C9450000C94500020
:100020000C9450000C9450000C9450000C94500010
:100030000C9450000C9450000C9450000C94500000
:100040000C9450000C9450000C9450000C945000F0
:100050000C9450000C9450000C9450000C945000E0
:100060000C9450000C9450005A005C005E0060003C
:1000700062006400660068006A006C0011241FBE04
:10008000CFEFD8E0DEBFCDBF21E0A0E0B1E001C0FE
:100090001D92A430B207E1F70E94AE000C9401015A
:1000A0000C9400008A309105C8F4FC01EC5CFF4F11
:1000B0000C94E70080E411C089E70FC084E20DC012
:1000C00080E30BC089E109C082E107C082E005C07E
:1000D00088E703C01BB8089580E18BB90895CF93DA
:1000E000DF938A30910564F16AE070E00E94D300EA
:1000F000EB01909303018093020181E085B9809127
:100100000201909103010E9452008FE19EE4019749
:10011000F1F700C00000D0930301C093020182E018
:1001200085B980910201909103010E9452008FE1F4
:100130009EE40197F1F700C00000DF91CF91089590
:10014000909303018093020181E085B980910201BF
:1001500090910301DF91CF910C9452008FEF8AB9F7
:100160008BB984B980910001909101010E946F00C8
:10017000809100019091010101968336910529F04B
:10018000909301018093000104C01092010110922C
:1001900000012FE788E391E0215080409040E1F793
:1001A00000C00000DFCF97FB072E16F4009407D0A5
:1001B00077FD09D00E94ED0007FC05D03EF4909534
:1001C00081959F4F0895709561957F4F0895EE0F2B
:1001D000FF1F0590F491E02D0994AA1BBB1B51E170
:1001E00007C0AA1FBB1FA617B70710F0A61BB70BA7
:1001F000881F991F5A95A9F780959095BC01CD014C
:060200000895F894FFCF01
:00000001FF
