:100000000C943E000C9450000C9450000C94500042
:100010000C9450000C9450000C9450000C94500020
:100020000C9450000C9450000C9450000C94500010
:100030000C9450000C9450000C9450000C94500000
:100040000C9450000C9450000C9450000C945000F0
:100050000C9450000C9450000C9450000C945000E0
:100060000C9450000C9450005B005D005F00610038
:1000700063006500670069006B006D0011241FBEFE
:10008000CFEFD8E0DEBFCDBF21E0A0E0B1E001C0FE
:100090001D92A230B207E1F70E9470000C94980004
:1000A0000C94000090E08A309105C8F4FC01EC5CEF
:1000B000FF4F0C94920080E411C089E70FC084E2E6
:1000C0000DC080E30BC089E109C082E107C082E076
:1000D00005C088E703C01BB8089580E18BB9089577
:1000E0008FEF8AB98BB9809100010E9452008091F4
:1000F00000019091010101968A30910529F09093B9
:1001000001018093000104C01092010110920001CE
:100110002FE78AE196E0215080409040E1F700C04F
:100120000000E1CFEE0FFF1F0590F491E02D099440
:04013000F894FFCF71
:00000001FF
