:100000000C943E000C9450000C9450000C94500042
:100010000C9450000C9450000C9450000C94500020
:100020000C9450000C9450000C9450000C94500010
:100030000C9450000C9450000C9450000C94500000
:100040000C9450000C9450000C9450000C945000F0
:100050000C9450000C9450000C9450000C945000E0
:100060000C9450000C9450005A005C005E0060003C
:1000700062006400660068006A006C0011241FBE04
:10008000CFEFD8E0DEBFCDBF21E0A0E0B1E001C0FE
:100090001D92A430B207E1F70E94C6000C9416012D
:1000A0000C9400008A309105C8F4FC01EC5CFF4F11
:1000B0000C94FC0080E411C089E70FC084E20DC0FD
:1000C00080E30BC089E109C082E107C082E005C07E
:1000D00088E703C01BB8089580E18BB90895CF92DB
:1000E000DF92EF92FF920F931F93CF93DF938A30AB
:1000F00091057CF16AE070E00E94E8007B016C01F0
:10010000CAE0D0E001E012E0D0920301C092020107
:1001100005B980910201909103010E9452008FEC79
:1001200097E00197F1F700C00000F0920301E09220
:10013000020115B980910201909103010E945200C1
:100140008FEC97E00197F1F700C000002197E1F6EE
:1001500014C0909303018093020181E085B98091DE
:10016000020190910301DF91CF911F910F91FF90B8
:10017000EF90DF90CF900C945200DF91CF911F91C0
:100180000F91FF90EF90DF90CF9008958FEF8AB995
:100190008BB984B980910001909101010E946F0098
:1001A000809100019091010101968336910529F01B
:1001B000909301018093000104C0109201011092FC
:1001C00000018FEA96E30197F1F700C00000E2CF4B
:1001D00097FB072E16F4009407D077FD09D00E94F4
:1001E000020107FC05D03EF4909581959F4F08953C
:1001F000709561957F4F0895EE0FFF1F0590F49164
:10020000E02D0994AA1BBB1B51E107C0AA1FBB1F0D
:10021000A617B70710F0A61BB70B881F991F5A9592
:10022000A9F780959095BC01CD010895F894FFCF72
:00000001FF
